{
  "_format": "hh-sol-artifact-1",
  "contractName": "BulletinBoardFactory",
  "sourceName": "contracts/BulletinBoardFactory.sol",
  "abi": [
    {
      "anonymous": false,
      "inputs": [
        {
          "indexed": true,
          "internalType": "address",
          "name": "creator",
          "type": "address"
        },
        {
          "indexed": true,
          "internalType": "address",
          "name": "board",
          "type": "address"
        }
      ],
      "name": "BulletinBoardCreated",
      "type": "event"
    },
    {
      "inputs": [
        {
          "internalType": "uint256",
          "name": "",
          "type": "uint256"
        }
      ],
      "name": "bulletinBoards",
      "outputs": [
        {
          "internalType": "address",
          "name": "",
          "type": "address"
        }
      ],
      "stateMutability": "view",
      "type": "function"
    },
    {
      "inputs": [
        {
          "internalType": "uint256",
          "name": "_pricePerBoard",
          "type": "uint256"
        }
      ],
      "name": "createBulletinBoard",
      "outputs": [],
      "stateMutability": "payable",
      "type": "function"
    },
    {
      "inputs": [],
      "name": "getBulletinBoards",
      "outputs": [
        {
          "internalType": "address[]",
          "name": "",
          "type": "address[]"
        }
      ],
      "stateMutability": "view",
      "type": "function"
    }
  ],
  "bytecode": "0x608060405234801561001057600080fd5b50611a64806100206000396000f3fe6080604052600436106100345760003560e01c8063a1b77c4a14610039578063a310c3e414610064578063f105900314610080575b600080fd5b34801561004557600080fd5b5061004e6100bd565b60405161005b91906103c5565b60405180910390f35b61007e60048036038101906100799190610422565b61014b565b005b34801561008c57600080fd5b506100a760048036038101906100a29190610422565b610289565b6040516100b4919061045e565b60405180910390f35b6060600080548060200260200160405190810160405280929190818152602001828054801561014157602002820191906000526020600020905b8160009054906101000a900473ffffffffffffffffffffffffffffffffffffffff1673ffffffffffffffffffffffffffffffffffffffff16815260200190600101908083116100f7575b5050505050905090565b8034101561018e576040517f08c379a0000000000000000000000000000000000000000000000000000000008152600401610185906104d6565b60405180910390fd5b6000338260405161019e906102c8565b6101a9929190610505565b604051809103906000f0801580156101c5573d6000803e3d6000fd5b5090506000819080600181540180825580915050600190039060005260206000200160009091909190916101000a81548173ffffffffffffffffffffffffffffffffffffffff021916908373ffffffffffffffffffffffffffffffffffffffff1602179055508073ffffffffffffffffffffffffffffffffffffffff163373ffffffffffffffffffffffffffffffffffffffff167f3681f2cc307f06701bb46de8c10f7d9d60d4edc2fc92fd054081e0db239bac7760405160405180910390a35050565b6000818154811061029957600080fd5b906000526020600020016000915054906101000a900473ffffffffffffffffffffffffffffffffffffffff1681565b6115008061052f83390190565b600081519050919050565b600082825260208201905092915050565b6000819050602082019050919050565b600073ffffffffffffffffffffffffffffffffffffffff82169050919050565b600061032c82610301565b9050919050565b61033c81610321565b82525050565b600061034e8383610333565b60208301905092915050565b6000602082019050919050565b6000610372826102d5565b61037c81856102e0565b9350610387836102f1565b8060005b838110156103b857815161039f8882610342565b97506103aa8361035a565b92505060018101905061038b565b5085935050505092915050565b600060208201905081810360008301526103df8184610367565b905092915050565b600080fd5b6000819050919050565b6103ff816103ec565b811461040a57600080fd5b50565b60008135905061041c816103f6565b92915050565b600060208284031215610438576104376103e7565b5b60006104468482850161040d565b91505092915050565b61045881610321565b82525050565b6000602082019050610473600083018461044f565b92915050565b600082825260208201905092915050565b7f496e73756666696369656e742066756e64730000000000000000000000000000600082015250565b60006104c0601283610479565b91506104cb8261048a565b602082019050919050565b600060208201905081810360008301526104ef816104b3565b9050919050565b6104ff816103ec565b82525050565b600060408201905061051a600083018561044f565b61052760208301846104f6565b939250505056fe6080604052604051620015003803806200150083398181016040528101906200002991906200015f565b81600160006101000a81548173ffffffffffffffffffffffffffffffffffffffff021916908373ffffffffffffffffffffffffffffffffffffffff16021790555033600260006101000a81548173ffffffffffffffffffffffffffffffffffffffff021916908373ffffffffffffffffffffffffffffffffffffffff160217905550806003819055505050620001a6565b600080fd5b600073ffffffffffffffffffffffffffffffffffffffff82169050919050565b6000620000ec82620000bf565b9050919050565b620000fe81620000df565b81146200010a57600080fd5b50565b6000815190506200011e81620000f3565b92915050565b6000819050919050565b620001398162000124565b81146200014557600080fd5b50565b60008151905062000159816200012e565b92915050565b60008060408385031215620001795762000178620000ba565b5b600062000189858286016200010d565b92505060206200019c8582860162000148565b9150509250929050565b61134a80620001b66000396000f3fe6080604052600436106100705760003560e01c8063afeab2691161004e578063afeab269146100e7578063c2b8dc7c14610110578063d2821ae61461013b578063d5f394881461017957610070565b80631a90a0951461007557806320b8152d146100a057806391708d55146100bc575b600080fd5b34801561008157600080fd5b5061008a6101a4565b60405161009791906107f2565b60405180910390f35b6100ba60048036038101906100b59190610993565b6101aa565b005b3480156100c857600080fd5b506100d161037d565b6040516100de9190610a30565b60405180910390f35b3480156100f357600080fd5b5061010e60048036038101906101099190610a4b565b6103a3565b005b34801561011c57600080fd5b5061012561059f565b6040516101329190610c05565b60405180910390f35b34801561014757600080fd5b50610162600480360381019061015d9190610a4b565b61069a565b604051610170929190610c71565b60405180910390f35b34801561018557600080fd5b5061018e610756565b60405161019b9190610a30565b60405180910390f35b60035481565b600260009054906101000a900473ffffffffffffffffffffffffffffffffffffffff1673ffffffffffffffffffffffffffffffffffffffff163373ffffffffffffffffffffffffffffffffffffffff161461023a576040517f08c379a000000000000000000000000000000000000000000000000000000000815260040161023190610d13565b60405180910390fd5b601460008054905010610282576040517f08c379a000000000000000000000000000000000000000000000000000000000815260040161027990610d7f565b60405180910390fd5b6003543410156102c7576040517f08c379a00000000000000000000000000000000000000000000000000000000081526004016102be90610deb565b60405180910390fd5b60006040518060400160405280848152602001838152509080600181540180825580915050600190039060005260206000209060020201600090919091909150600082015181600001908161031c9190611017565b506020820151816001015550503373ffffffffffffffffffffffffffffffffffffffff167ffbb8e099255307cbec08d58c17e124e8d760ed5b192ed3488690894f55921f1e8383604051610371929190610c71565b60405180910390a25050565b600260009054906101000a900473ffffffffffffffffffffffffffffffffffffffff1681565b600260009054906101000a900473ffffffffffffffffffffffffffffffffffffffff1673ffffffffffffffffffffffffffffffffffffffff163373ffffffffffffffffffffffffffffffffffffffff1614610433576040517f08c379a000000000000000000000000000000000000000000000000000000000815260040161042a90610d13565b60405180910390fd5b600080549050811061047a576040517f08c379a000000000000000000000000000000000000000000000000000000000815260040161047190611135565b60405180910390fd5b3373ffffffffffffffffffffffffffffffffffffffff167f927426c7868b3462d9ee30dcec00e3c2784ea3bce775fb479959739c4a0c39ec826040516104c091906107f2565b60405180910390a260016000805490506104da9190611184565b81101561055957600060016000805490506104f59190611184565b81548110610506576105056111b8565b5b906000526020600020906002020160008281548110610528576105276111b8565b5b90600052602060002090600202016000820181600001908161054a91906111fd565b50600182015481600101559050505b600080548061056b5761056a6112e5565b5b600190038181906000526020600020906002020160008082016000610590919061077c565b60018201600090555050905550565b60606000805480602002602001604051908101604052809291908181526020016000905b8282101561069157838290600052602060002090600202016040518060400160405290816000820180546105f690610e3a565b80601f016020809104026020016040519081016040528092919081815260200182805461062290610e3a565b801561066f5780601f106106445761010080835404028352916020019161066f565b820191906000526020600020905b81548152906001019060200180831161065257829003601f168201915b50505050508152602001600182015481525050815260200190600101906105c3565b50505050905090565b600081815481106106aa57600080fd5b90600052602060002090600202016000915090508060000180546106cd90610e3a565b80601f01602080910402602001604051908101604052809291908181526020018280546106f990610e3a565b80156107465780601f1061071b57610100808354040283529160200191610746565b820191906000526020600020905b81548152906001019060200180831161072957829003601f168201915b5050505050908060010154905082565b600160009054906101000a900473ffffffffffffffffffffffffffffffffffffffff1681565b50805461078890610e3a565b6000825580601f1061079a57506107b9565b601f0160209004906000526020600020908101906107b891906107bc565b5b50565b5b808211156107d55760008160009055506001016107bd565b5090565b6000819050919050565b6107ec816107d9565b82525050565b600060208201905061080760008301846107e3565b92915050565b6000604051905090565b600080fd5b600080fd5b600080fd5b600080fd5b6000601f19601f8301169050919050565b7f4e487b7100000000000000000000000000000000000000000000000000000000600052604160045260246000fd5b6108748261082b565b810181811067ffffffffffffffff821117156108935761089261083c565b5b80604052505050565b60006108a661080d565b90506108b2828261086b565b919050565b600067ffffffffffffffff8211156108d2576108d161083c565b5b6108db8261082b565b9050602081019050919050565b82818337600083830152505050565b600061090a610905846108b7565b61089c565b90508281526020810184848401111561092657610925610826565b5b6109318482856108e8565b509392505050565b600082601f83011261094e5761094d610821565b5b813561095e8482602086016108f7565b91505092915050565b610970816107d9565b811461097b57600080fd5b50565b60008135905061098d81610967565b92915050565b600080604083850312156109aa576109a9610817565b5b600083013567ffffffffffffffff8111156109c8576109c761081c565b5b6109d485828601610939565b92505060206109e58582860161097e565b9150509250929050565b600073ffffffffffffffffffffffffffffffffffffffff82169050919050565b6000610a1a826109ef565b9050919050565b610a2a81610a0f565b82525050565b6000602082019050610a456000830184610a21565b92915050565b600060208284031215610a6157610a60610817565b5b6000610a6f8482850161097e565b91505092915050565b600081519050919050565b600082825260208201905092915050565b6000819050602082019050919050565b600081519050919050565b600082825260208201905092915050565b60005b83811015610ade578082015181840152602081019050610ac3565b60008484015250505050565b6000610af582610aa4565b610aff8185610aaf565b9350610b0f818560208601610ac0565b610b188161082b565b840191505092915050565b610b2c816107d9565b82525050565b60006040830160008301518482036000860152610b4f8282610aea565b9150506020830151610b646020860182610b23565b508091505092915050565b6000610b7b8383610b32565b905092915050565b6000602082019050919050565b6000610b9b82610a78565b610ba58185610a83565b935083602082028501610bb785610a94565b8060005b85811015610bf35784840389528151610bd48582610b6f565b9450610bdf83610b83565b925060208a01995050600181019050610bbb565b50829750879550505050505092915050565b60006020820190508181036000830152610c1f8184610b90565b905092915050565b600082825260208201905092915050565b6000610c4382610aa4565b610c4d8185610c27565b9350610c5d818560208601610ac0565b610c668161082b565b840191505092915050565b60006040820190508181036000830152610c8b8185610c38565b9050610c9a60208301846107e3565b9392505050565b7f4f6e6c7920626f6172642063726561746f722063616e2063616c6c207468697360008201527f2066756e6374696f6e0000000000000000000000000000000000000000000000602082015250565b6000610cfd602983610c27565b9150610d0882610ca1565b604082019050919050565b60006020820190508181036000830152610d2c81610cf0565b9050919050565b7f4d6178696d756d206e756d626572206f6620746f706963732072656163686564600082015250565b6000610d69602083610c27565b9150610d7482610d33565b602082019050919050565b60006020820190508181036000830152610d9881610d5c565b9050919050565b7f496e73756666696369656e742066756e64730000000000000000000000000000600082015250565b6000610dd5601283610c27565b9150610de082610d9f565b602082019050919050565b60006020820190508181036000830152610e0481610dc8565b9050919050565b7f4e487b7100000000000000000000000000000000000000000000000000000000600052602260045260246000fd5b60006002820490506001821680610e5257607f821691505b602082108103610e6557610e64610e0b565b5b50919050565b60008190508160005260206000209050919050565b60006020601f8301049050919050565b600082821b905092915050565b600060088302610ecd7fffffffffffffffffffffffffffffffffffffffffffffffffffffffffffffffff82610e90565b610ed78683610e90565b95508019841693508086168417925050509392505050565b6000819050919050565b6000610f14610f0f610f0a846107d9565b610eef565b6107d9565b9050919050565b6000819050919050565b610f2e83610ef9565b610f42610f3a82610f1b565b848454610e9d565b825550505050565b600090565b610f57610f4a565b610f62818484610f25565b505050565b5b81811015610f8657610f7b600082610f4f565b600181019050610f68565b5050565b601f821115610fcb57610f9c81610e6b565b610fa584610e80565b81016020851015610fb4578190505b610fc8610fc085610e80565b830182610f67565b50505b505050565b600082821c905092915050565b6000610fee60001984600802610fd0565b1980831691505092915050565b60006110078383610fdd565b9150826002028217905092915050565b61102082610aa4565b67ffffffffffffffff8111156110395761103861083c565b5b6110438254610e3a565b61104e828285610f8a565b600060209050601f831160018114611081576000841561106f578287015190505b6110798582610ffb565b8655506110e1565b601f19841661108f86610e6b565b60005b828110156110b757848901518255600182019150602085019450602081019050611092565b868310156110d457848901516110d0601f891682610fdd565b8355505b6001600288020188555050505b505050505050565b7f496e76616c696420696e64657800000000000000000000000000000000000000600082015250565b600061111f600d83610c27565b915061112a826110e9565b602082019050919050565b6000602082019050818103600083015261114e81611112565b9050919050565b7f4e487b7100000000000000000000000000000000000000000000000000000000600052601160045260246000fd5b600061118f826107d9565b915061119a836107d9565b92508282039050818111156111b2576111b1611155565b5b92915050565b7f4e487b7100000000000000000000000000000000000000000000000000000000600052603260045260246000fd5b6000815490506111f681610e3a565b9050919050565b81810361120b5750506112e3565b611214826111e7565b67ffffffffffffffff81111561122d5761122c61083c565b5b6112378254610e3a565b611242828285610f8a565b6000601f831160018114611271576000841561125f578287015490505b6112698582610ffb565b8655506112dc565b601f19841661127f87610e6b565b965061128a86610e6b565b60005b828110156112b25784890154825560018201915060018501945060208101905061128d565b868310156112cf57848901546112cb601f891682610fdd565b8355505b6001600288020188555050505b5050505050505b565b7f4e487b7100000000000000000000000000000000000000000000000000000000600052603160045260246000fdfea2646970667358221220982ec1580d5bb211eb3fb2e838d89ada5c48c69e7f3506278773372b756f93cb64736f6c63430008180033a26469706673582212202a1b094d42d332755916e14ae213b73387430f086bf20ff58b3e74309068f65264736f6c63430008180033",
  "linkReferences": {},
  "deployedLinkReferences": {}
}